:020000040000FA
:020000000F28C7
:040002000034003492
:080008002700131A3B20931A94
:100010003F201312931221009D00200009002100AF
:1000200068309900AB20BE2027001216921693016B
:100030008B158B1721000030F300F230F4000030F4
:10004000F50021004120A12075182920751C3220BF
:100050002128F30A0A30730203192F200800003008
:10006000F3000800F303FF3073020319382008007F
:100070000930F300080040307407F4000800F50A66
:10008000080077080030F70078080030F800790899
:100090000030F90000307302031979200130730237
:1000A00003197D200230730203198120033073028B
:1000B0000319852004307302031989200530730267
:1000C00003198D2006307302031991200730730243
:1000D000031995200830730203199920093073021F
:1000E00003199D2079080921780809217708092139
:1000F000080079088030F900080079084030F900DC
:10010000080079082030F900080079081030F9005B
:10011000080078081030F800080077081030F70061
:10012000080077080830F700080077080430F70067
:10013000080077088030F700080078088030F80061
:1001400008007408F100F930F0000000F00BA52859
:10015000F10BA328080022008C018D018E012300E1
:1001600000308C0010308D0004308E002100FB30F8
:100170008C003F308D0015308E0008002400940163
:1001800030309500030120000E1324009100141C50
:10019000C728110803019100141CCC281108030181
:1001A0009100141CD1281108030120000E1708002B
:1001B000F901F801F701F635F90DF635F90DF635C7
:1001C000F90D0530F8007908033E8919F90079081E
:1001D000303E891BF900F635F90DF70DF80BE328D1
:1001E0007908F800F80E0F30F905F80508000F3906
:1001F0000B00FC346034DA34F2346634B634BE3486
:10020000E034FE34F634EE343E349C347A349E349A
:100210008E3420000E1324009100141C0D291108A7
:08022000030120000E17080085
:020000040001F9
:02000E00E40903
:02001000FF3FB0
:00000001FF
